{
  "contractName": "IntermediateState",
  "abi": [
    {
      "inputs": [],
      "stateMutability": "nonpayable",
      "type": "constructor"
    },
    {
      "anonymous": false,
      "inputs": [
        {
          "indexed": true,
          "internalType": "address",
          "name": "previousOwner",
          "type": "address"
        },
        {
          "indexed": true,
          "internalType": "address",
          "name": "newOwner",
          "type": "address"
        }
      ],
      "name": "OwnershipTransferred",
      "type": "event"
    },
    {
      "inputs": [],
      "name": "owner",
      "outputs": [
        {
          "internalType": "address",
          "name": "",
          "type": "address"
        }
      ],
      "stateMutability": "view",
      "type": "function"
    },
    {
      "inputs": [],
      "name": "renounceOwnership",
      "outputs": [],
      "stateMutability": "nonpayable",
      "type": "function"
    },
    {
      "inputs": [
        {
          "internalType": "address",
          "name": "newOwner",
          "type": "address"
        }
      ],
      "name": "transferOwnership",
      "outputs": [],
      "stateMutability": "nonpayable",
      "type": "function"
    },
    {
      "inputs": [
        {
          "internalType": "address",
          "name": "_admin",
          "type": "address"
        }
      ],
      "name": "isAdmin",
      "outputs": [
        {
          "internalType": "bool",
          "name": "",
          "type": "bool"
        }
      ],
      "stateMutability": "view",
      "type": "function"
    },
    {
      "inputs": [
        {
          "internalType": "address",
          "name": "_admin",
          "type": "address"
        }
      ],
      "name": "adminVotes",
      "outputs": [
        {
          "internalType": "uint8",
          "name": "",
          "type": "uint8"
        }
      ],
      "stateMutability": "view",
      "type": "function"
    },
    {
      "inputs": [
        {
          "internalType": "address",
          "name": "_admin",
          "type": "address"
        }
      ],
      "name": "isAdminSuspended",
      "outputs": [
        {
          "internalType": "bool",
          "name": "",
          "type": "bool"
        }
      ],
      "stateMutability": "view",
      "type": "function"
    },
    {
      "inputs": [
        {
          "internalType": "address",
          "name": "_admin",
          "type": "address"
        }
      ],
      "name": "enterNewAdmin",
      "outputs": [],
      "stateMutability": "nonpayable",
      "type": "function"
    },
    {
      "inputs": [
        {
          "internalType": "address",
          "name": "_admin",
          "type": "address"
        }
      ],
      "name": "removeAdmin",
      "outputs": [],
      "stateMutability": "nonpayable",
      "type": "function"
    },
    {
      "inputs": [
        {
          "internalType": "address",
          "name": "_voteFor",
          "type": "address"
        }
      ],
      "name": "intermediateState",
      "outputs": [],
      "stateMutability": "nonpayable",
      "type": "function"
    },
    {
      "inputs": [
        {
          "internalType": "address",
          "name": "_admin",
          "type": "address"
        }
      ],
      "name": "useRight",
      "outputs": [],
      "stateMutability": "nonpayable",
      "type": "function"
    }
  ],
  "bytecode": "0x608060405234801561001057600080fd5b5061002d6100226100fa60201b60201c565b61010260201b60201c565b6040518060600160405280600115158152602001600015158152602001600060ff16815250600160003373ffffffffffffffffffffffffffffffffffffffff1673ffffffffffffffffffffffffffffffffffffffff16815260200190815260200160002060008201518160000160006101000a81548160ff02191690831515021790555060208201518160000160016101000a81548160ff02191690831515021790555060408201518160000160026101000a81548160ff021916908360ff1602179055509050506101c6565b600033905090565b60008060009054906101000a900473ffffffffffffffffffffffffffffffffffffffff169050816000806101000a81548173ffffffffffffffffffffffffffffffffffffffff021916908373ffffffffffffffffffffffffffffffffffffffff1602179055508173ffffffffffffffffffffffffffffffffffffffff168173ffffffffffffffffffffffffffffffffffffffff167f8be0079c531659141344cd1fd0a4f28419497f9722a3daafe3b4186f6b6457e060405160405180910390a35050565b61147d806101d56000396000f3fe608060405234801561001057600080fd5b506004361061009e5760003560e01c80638da5cb5b116100665780638da5cb5b14610131578063bf4c4dd31461014f578063ccab7fac1461017f578063e299452e146101af578063f2fde38b146101cb5761009e565b80631785f53c146100a357806324d7806c146100bf57806347c1bdb2146100ef5780635b9e3e941461010b578063715018a614610127575b600080fd5b6100bd60048036038101906100b89190610e11565b6101e7565b005b6100d960048036038101906100d49190610e11565b6103bd565b6040516100e69190610f9a565b60405180910390f35b61010960048036038101906101049190610e11565b610416565b005b61012560048036038101906101209190610e11565b61077c565b005b61012f61098e565b005b610139610a16565b6040516101469190610f7f565b60405180910390f35b61016960048036038101906101649190610e11565b610a3f565b60405161017691906110b5565b60405180910390f35b61019960048036038101906101949190610e11565b610a98565b6040516101a69190610f9a565b60405180910390f35b6101c960048036038101906101c49190610e11565b610af1565b005b6101e560048036038101906101e09190610e11565b610c38565b005b600160003373ffffffffffffffffffffffffffffffffffffffff1673ffffffffffffffffffffffffffffffffffffffff16815260200190815260200160002060000160009054906101000a900460ff16610276576040517f08c379a000000000000000000000000000000000000000000000000000000000815260040161026d90611055565b60405180910390fd5b600160003373ffffffffffffffffffffffffffffffffffffffff1673ffffffffffffffffffffffffffffffffffffffff16815260200190815260200160002060000160019054906101000a900460ff1615610306576040517f08c379a00000000000000000000000000000000000000000000000000000000081526004016102fd90611015565b60405180910390fd5b60018060008373ffffffffffffffffffffffffffffffffffffffff1673ffffffffffffffffffffffffffffffffffffffff16815260200190815260200160002060000160016101000a81548160ff02191690831515021790555060018060003373ffffffffffffffffffffffffffffffffffffffff1673ffffffffffffffffffffffffffffffffffffffff16815260200190815260200160002060000160016101000a81548160ff02191690831515021790555050565b6000600160008373ffffffffffffffffffffffffffffffffffffffff1673ffffffffffffffffffffffffffffffffffffffff16815260200190815260200160002060000160009054906101000a900460ff169050919050565b600160003373ffffffffffffffffffffffffffffffffffffffff1673ffffffffffffffffffffffffffffffffffffffff16815260200190815260200160002060000160009054906101000a900460ff166104a5576040517f08c379a000000000000000000000000000000000000000000000000000000000815260040161049c90610fd5565b60405180910390fd5b600160003373ffffffffffffffffffffffffffffffffffffffff1673ffffffffffffffffffffffffffffffffffffffff16815260200190815260200160002060000160019054906101000a900460ff1615610535576040517f08c379a000000000000000000000000000000000000000000000000000000000815260040161052c90611015565b60405180910390fd5b600260003373ffffffffffffffffffffffffffffffffffffffff1673ffffffffffffffffffffffffffffffffffffffff16815260200190815260200160002060008273ffffffffffffffffffffffffffffffffffffffff1673ffffffffffffffffffffffffffffffffffffffff16815260200190815260200160002060009054906101000a900460ff16156105ff576040517f08c379a00000000000000000000000000000000000000000000000000000000081526004016105f690611075565b60405180910390fd5b8073ffffffffffffffffffffffffffffffffffffffff163373ffffffffffffffffffffffffffffffffffffffff16141561066e576040517f08c379a000000000000000000000000000000000000000000000000000000000815260040161066590610fb5565b60405180910390fd5b6001600260003373ffffffffffffffffffffffffffffffffffffffff1673ffffffffffffffffffffffffffffffffffffffff16815260200190815260200160002060008373ffffffffffffffffffffffffffffffffffffffff1673ffffffffffffffffffffffffffffffffffffffff16815260200190815260200160002060006101000a81548160ff02191690831515021790555060018060008373ffffffffffffffffffffffffffffffffffffffff1673ffffffffffffffffffffffffffffffffffffffff16815260200190815260200160002060000160028282829054906101000a900460ff1661076191906110e1565b92506101000a81548160ff021916908360ff16021790555050565b600160003373ffffffffffffffffffffffffffffffffffffffff1673ffffffffffffffffffffffffffffffffffffffff16815260200190815260200160002060000160009054906101000a900460ff1661080b576040517f08c379a000000000000000000000000000000000000000000000000000000000815260040161080290610fd5565b60405180910390fd5b6002600160003373ffffffffffffffffffffffffffffffffffffffff1673ffffffffffffffffffffffffffffffffffffffff16815260200190815260200160002060000160029054906101000a900460ff1660ff1610156108a1576040517f08c379a000000000000000000000000000000000000000000000000000000000815260040161089890610fd5565b60405180910390fd5b600160008273ffffffffffffffffffffffffffffffffffffffff1673ffffffffffffffffffffffffffffffffffffffff16815260200190815260200160002060000160019054906101000a900460ff16610930576040517f08c379a000000000000000000000000000000000000000000000000000000000815260040161092790611095565b60405180910390fd5b6000600160008373ffffffffffffffffffffffffffffffffffffffff1673ffffffffffffffffffffffffffffffffffffffff16815260200190815260200160002060000160006101000a81548160ff02191690831515021790555050565b610996610d30565b73ffffffffffffffffffffffffffffffffffffffff166109b4610a16565b73ffffffffffffffffffffffffffffffffffffffff1614610a0a576040517f08c379a0000000000000000000000000000000000000000000000000000000008152600401610a0190611035565b60405180910390fd5b610a146000610d38565b565b60008060009054906101000a900473ffffffffffffffffffffffffffffffffffffffff16905090565b6000600160008373ffffffffffffffffffffffffffffffffffffffff1673ffffffffffffffffffffffffffffffffffffffff16815260200190815260200160002060000160029054906101000a900460ff169050919050565b6000600160008373ffffffffffffffffffffffffffffffffffffffff1673ffffffffffffffffffffffffffffffffffffffff16815260200190815260200160002060000160019054906101000a900460ff169050919050565b610af9610d30565b73ffffffffffffffffffffffffffffffffffffffff16610b17610a16565b73ffffffffffffffffffffffffffffffffffffffff1614610b6d576040517f08c379a0000000000000000000000000000000000000000000000000000000008152600401610b6490611035565b60405180910390fd5b6040518060600160405280600115158152602001600015158152602001600060ff16815250600160008373ffffffffffffffffffffffffffffffffffffffff1673ffffffffffffffffffffffffffffffffffffffff16815260200190815260200160002060008201518160000160006101000a81548160ff02191690831515021790555060208201518160000160016101000a81548160ff02191690831515021790555060408201518160000160026101000a81548160ff021916908360ff16021790555090505050565b610c40610d30565b73ffffffffffffffffffffffffffffffffffffffff16610c5e610a16565b73ffffffffffffffffffffffffffffffffffffffff1614610cb4576040517f08c379a0000000000000000000000000000000000000000000000000000000008152600401610cab90611035565b60405180910390fd5b600073ffffffffffffffffffffffffffffffffffffffff168173ffffffffffffffffffffffffffffffffffffffff161415610d24576040517f08c379a0000000000000000000000000000000000000000000000000000000008152600401610d1b90610ff5565b60405180910390fd5b610d2d81610d38565b50565b600033905090565b60008060009054906101000a900473ffffffffffffffffffffffffffffffffffffffff169050816000806101000a81548173ffffffffffffffffffffffffffffffffffffffff021916908373ffffffffffffffffffffffffffffffffffffffff1602179055508173ffffffffffffffffffffffffffffffffffffffff168173ffffffffffffffffffffffffffffffffffffffff167f8be0079c531659141344cd1fd0a4f28419497f9722a3daafe3b4186f6b6457e060405160405180910390a35050565b600081359050610e0b81611430565b92915050565b600060208284031215610e2357600080fd5b6000610e3184828501610dfc565b91505092915050565b610e4381611118565b82525050565b610e528161112a565b82525050565b6000610e656030836110d0565b9150610e7082611192565b604082019050919050565b6000610e88603b836110d0565b9150610e93826111e1565b604082019050919050565b6000610eab6026836110d0565b9150610eb682611230565b604082019050919050565b6000610ece6046836110d0565b9150610ed98261127f565b606082019050919050565b6000610ef16020836110d0565b9150610efc826112f4565b602082019050919050565b6000610f146038836110d0565b9150610f1f8261131d565b604082019050919050565b6000610f376036836110d0565b9150610f428261136c565b604082019050919050565b6000610f5a604d836110d0565b9150610f65826113bb565b606082019050919050565b610f7981611156565b82525050565b6000602082019050610f946000830184610e3a565b92915050565b6000602082019050610faf6000830184610e49565b92915050565b60006020820190508181036000830152610fce81610e58565b9050919050565b60006020820190508181036000830152610fee81610e7b565b9050919050565b6000602082019050818103600083015261100e81610e9e565b9050919050565b6000602082019050818103600083015261102e81610ec1565b9050919050565b6000602082019050818103600083015261104e81610ee4565b9050919050565b6000602082019050818103600083015261106e81610f07565b9050919050565b6000602082019050818103600083015261108e81610f2a565b9050919050565b600060208201905081810360008301526110ae81610f4d565b9050919050565b60006020820190506110ca6000830184610f70565b92915050565b600082825260208201905092915050565b60006110ec82611156565b91506110f783611156565b92508260ff0382111561110d5761110c611163565b5b828201905092915050565b600061112382611136565b9050919050565b60008115159050919050565b600073ffffffffffffffffffffffffffffffffffffffff82169050919050565b600060ff82169050919050565b7f4e487b7100000000000000000000000000000000000000000000000000000000600052601160045260246000fd5b7f496e7465726d65646961746553746174653a596f752063616e206e6f7420766f60008201527f746520666f7220796f75722073656c6600000000000000000000000000000000602082015250565b7f496e7465726d65646961746553746174653a206f6e6c792061646d696e20616c60008201527f6c6f77656420746f2063616c6c20746869732066756e6374696f6e0000000000602082015250565b7f4f776e61626c653a206e6577206f776e657220697320746865207a65726f206160008201527f6464726573730000000000000000000000000000000000000000000000000000602082015250565b7f496e7465726d65646961746553746174653a204f6e6c79206e6f6e207375737060008201527f656e6465642061646d696e2063616e2072656d6f766520746865206f7468657260208201527f2061646d696e0000000000000000000000000000000000000000000000000000604082015250565b7f4f776e61626c653a2063616c6c6572206973206e6f7420746865206f776e6572600082015250565b7f496e7465726d65646961746553746174653a204f6e6c792061646d696e20636160008201527f6e2072656d6f766520746865206f746865722061646d696e0000000000000000602082015250565b7f496e7465726d65646961746553746174653a596f75206861766520616c72656160008201527f647920766f746520666f7220746869732061646d696e00000000000000000000602082015250565b7f496e7465726d65646961746553746174653a204f6e6c792073757370656e646560008201527f642061646d696e2063616e2062652072656d6f76652066726f6d20746865206160208201527f646d696e697374726174696f6e00000000000000000000000000000000000000604082015250565b61143981611118565b811461144457600080fd5b5056fea2646970667358221220bd8f2df435b86f95e15274115566d701a9f458c932b7741a602d6ac425c923d064736f6c63430008020033",
  "immutableReferences": {},
  "source": "// SPDX-License-Identifier: MIT\r\npragma solidity ^0.8.0;\r\nimport \"@openzeppelin/contracts/access/Ownable.sol\";\r\n\r\n\r\ncontract IntermediateState is Ownable{\r\n    struct adminData{\r\n        bool member;\r\n        bool suspend;\r\n        uint8 noOfVotes;\r\n    }\r\n\r\n    mapping(address=>adminData) adminshipList;\r\n    mapping (address=>mapping(address=>bool)) intermediateVoteFor;\r\n\r\n    constructor(){\r\n        adminshipList[msg.sender]=adminData(true,false,0);\r\n    }\r\n\r\n    function isAdmin(address _admin) external view returns(bool){\r\n        return adminshipList[_admin].member;\r\n    }\r\n    function adminVotes(address _admin) external view returns(uint8){\r\n        return adminshipList[_admin].noOfVotes;\r\n    }\r\n\r\n    function isAdminSuspended(address _admin) external view returns(bool){\r\n        return adminshipList[_admin].suspend;\r\n    }\r\n\r\n\r\n    // I will add 5 admin to the list\r\n    function enterNewAdmin(address _admin) external onlyOwner{\r\n        adminshipList[_admin]=adminData(true,false,0);\r\n    }\r\n\r\n    function removeAdmin(address _admin) external{\r\n        require(adminshipList[msg.sender].member,\"IntermediateState: Only admin can remove the other admin\");\r\n        require(!adminshipList[msg.sender].suspend,\"IntermediateState: Only non suspended admin can remove the other admin\");\r\n        adminshipList[_admin].suspend=true;\r\n        adminshipList[msg.sender].suspend=true;\r\n    }\r\n\r\n\r\n    function intermediateState(address _voteFor) external{\r\n        require(adminshipList[msg.sender].member,\"IntermediateState: only admin allowed to call this function\");\r\n        require(!adminshipList[msg.sender].suspend,\"IntermediateState: Only non suspended admin can remove the other admin\");\r\n        require(!intermediateVoteFor[msg.sender][_voteFor],\"IntermediateState:You have already vote for this admin\");\r\n        require(msg.sender!=_voteFor,\"IntermediateState:You can not vote for your self\");\r\n\r\n        intermediateVoteFor[msg.sender][_voteFor]=true;\r\n        adminshipList[_voteFor].noOfVotes +=1;\r\n    }\r\n\r\n    function useRight(address _admin) external {\r\n        require(adminshipList[msg.sender].member,\"IntermediateState: only admin allowed to call this function\");\r\n        require(adminshipList[msg.sender].noOfVotes>=2,\"IntermediateState: only admin allowed to call this function\");\r\n        require(adminshipList[_admin].suspend,\"IntermediateState: Only suspended admin can be remove from the administration\");\r\n\r\n        adminshipList[_admin].member=false;\r\n\r\n\r\n    }\r\n\r\n\r\n\r\n}",
  "sourcePath": "C:\\BigImmersiive\\antiFrontRunningInSolidity\\contracts\\IntermediateStates.sol",
  "compiler": {
    "name": "solc",
    "version": "0.8.2+commit.661d1103.Emscripten.clang"
  },
  "schemaVersion": "3.4.6",
  "updatedAt": "2022-04-22T10:42:52.252Z",
  "devdoc": {
    "kind": "dev",
    "methods": {
      "owner()": {
        "details": "Returns the address of the current owner."
      },
      "renounceOwnership()": {
        "details": "Leaves the contract without owner. It will not be possible to call `onlyOwner` functions anymore. Can only be called by the current owner. NOTE: Renouncing ownership will leave the contract without an owner, thereby removing any functionality that is only available to the owner."
      },
      "transferOwnership(address)": {
        "details": "Transfers ownership of the contract to a new account (`newOwner`). Can only be called by the current owner."
      }
    },
    "version": 1
  },
  "userdoc": {
    "kind": "user",
    "methods": {},
    "version": 1
  }
}