{
  "contractName": "IntermediateState",
  "abi": [
    {
      "inputs": [],
      "stateMutability": "nonpayable",
      "type": "constructor"
    },
    {
      "anonymous": false,
      "inputs": [
        {
          "indexed": true,
          "internalType": "address",
          "name": "previousOwner",
          "type": "address"
        },
        {
          "indexed": true,
          "internalType": "address",
          "name": "newOwner",
          "type": "address"
        }
      ],
      "name": "OwnershipTransferred",
      "type": "event"
    },
    {
      "anonymous": false,
      "inputs": [
        {
          "indexed": true,
          "internalType": "address",
          "name": "Caller",
          "type": "address"
        },
        {
          "indexed": true,
          "internalType": "address",
          "name": "adminRemoved",
          "type": "address"
        }
      ],
      "name": "_adminRights",
      "type": "event"
    },
    {
      "anonymous": false,
      "inputs": [
        {
          "indexed": true,
          "internalType": "address",
          "name": "adder",
          "type": "address"
        },
        {
          "indexed": true,
          "internalType": "address",
          "name": "newAdmin",
          "type": "address"
        }
      ],
      "name": "_enternewAdmin",
      "type": "event"
    },
    {
      "anonymous": false,
      "inputs": [
        {
          "indexed": true,
          "internalType": "address",
          "name": "_remover",
          "type": "address"
        },
        {
          "indexed": true,
          "internalType": "address",
          "name": "other",
          "type": "address"
        },
        {
          "indexed": false,
          "internalType": "uint256",
          "name": "_complaintTime",
          "type": "uint256"
        }
      ],
      "name": "_removeAdmin",
      "type": "event"
    },
    {
      "anonymous": false,
      "inputs": [
        {
          "indexed": true,
          "internalType": "address",
          "name": "voter",
          "type": "address"
        },
        {
          "indexed": true,
          "internalType": "address",
          "name": "voterFor",
          "type": "address"
        }
      ],
      "name": "_voteCasted",
      "type": "event"
    },
    {
      "inputs": [],
      "name": "owner",
      "outputs": [
        {
          "internalType": "address",
          "name": "",
          "type": "address"
        }
      ],
      "stateMutability": "view",
      "type": "function",
      "constant": true
    },
    {
      "inputs": [],
      "name": "renounceOwnership",
      "outputs": [],
      "stateMutability": "nonpayable",
      "type": "function"
    },
    {
      "inputs": [
        {
          "internalType": "address",
          "name": "newOwner",
          "type": "address"
        }
      ],
      "name": "transferOwnership",
      "outputs": [],
      "stateMutability": "nonpayable",
      "type": "function"
    },
    {
      "inputs": [
        {
          "internalType": "address",
          "name": "_admin",
          "type": "address"
        }
      ],
      "name": "isAdmin",
      "outputs": [
        {
          "internalType": "bool",
          "name": "",
          "type": "bool"
        }
      ],
      "stateMutability": "view",
      "type": "function",
      "constant": true
    },
    {
      "inputs": [
        {
          "internalType": "address",
          "name": "_admin",
          "type": "address"
        }
      ],
      "name": "adminVotes",
      "outputs": [
        {
          "internalType": "uint8",
          "name": "",
          "type": "uint8"
        }
      ],
      "stateMutability": "view",
      "type": "function",
      "constant": true
    },
    {
      "inputs": [
        {
          "internalType": "address",
          "name": "_admin",
          "type": "address"
        }
      ],
      "name": "isAdminSuspended",
      "outputs": [
        {
          "internalType": "bool",
          "name": "",
          "type": "bool"
        }
      ],
      "stateMutability": "view",
      "type": "function",
      "constant": true
    },
    {
      "inputs": [
        {
          "internalType": "address",
          "name": "_admin",
          "type": "address"
        }
      ],
      "name": "enterNewAdmin",
      "outputs": [],
      "stateMutability": "nonpayable",
      "type": "function"
    },
    {
      "inputs": [
        {
          "internalType": "address",
          "name": "_admin",
          "type": "address"
        }
      ],
      "name": "removeAdmin",
      "outputs": [],
      "stateMutability": "nonpayable",
      "type": "function"
    },
    {
      "inputs": [
        {
          "internalType": "address",
          "name": "_voteFor",
          "type": "address"
        }
      ],
      "name": "adminVote",
      "outputs": [],
      "stateMutability": "nonpayable",
      "type": "function"
    },
    {
      "inputs": [
        {
          "internalType": "address",
          "name": "_admin",
          "type": "address"
        }
      ],
      "name": "useRight",
      "outputs": [],
      "stateMutability": "nonpayable",
      "type": "function"
    }
  ],
  "bytecode": "0x608060405234801561001057600080fd5b5061002d6100226100fa60201b60201c565b61010260201b60201c565b6040518060600160405280600115158152602001600015158152602001600060ff16815250600160003373ffffffffffffffffffffffffffffffffffffffff1673ffffffffffffffffffffffffffffffffffffffff16815260200190815260200160002060008201518160000160006101000a81548160ff02191690831515021790555060208201518160000160016101000a81548160ff02191690831515021790555060408201518160000160026101000a81548160ff021916908360ff1602179055509050506101c6565b600033905090565b60008060009054906101000a900473ffffffffffffffffffffffffffffffffffffffff169050816000806101000a81548173ffffffffffffffffffffffffffffffffffffffff021916908373ffffffffffffffffffffffffffffffffffffffff1602179055508173ffffffffffffffffffffffffffffffffffffffff168173ffffffffffffffffffffffffffffffffffffffff167f8be0079c531659141344cd1fd0a4f28419497f9722a3daafe3b4186f6b6457e060405160405180910390a35050565b611857806101d56000396000f3fe608060405234801561001057600080fd5b506004361061009e5760003560e01c80638da5cb5b116100665780638da5cb5b14610131578063bf4c4dd31461014f578063ccab7fac1461017f578063e299452e146101af578063f2fde38b146101cb5761009e565b80631785f53c146100a357806324d7806c146100bf5780633f9c3ac5146100ef5780635b9e3e941461010b578063715018a614610127575b600080fd5b6100bd60048036038101906100b89190611047565b6101e7565b005b6100d960048036038101906100d49190611047565b610377565b6040516100e69190611225565b60405180910390f35b61010960048036038101906101049190611047565b6103d0565b005b61012560048036038101906101209190611047565b610790565b005b61012f610ab3565b005b610139610b3b565b604051610146919061120a565b60405180910390f35b61016960048036038101906101649190611047565b610b64565b604051610176919061139b565b60405180910390f35b61019960048036038101906101949190611047565b610bbd565b6040516101a69190611225565b60405180910390f35b6101c960048036038101906101c49190611047565b610c16565b005b6101e560048036038101906101e09190611047565b610db7565b005b600160003373ffffffffffffffffffffffffffffffffffffffff1673ffffffffffffffffffffffffffffffffffffffff16815260200190815260200160002060000160009054906101000a900460ff16610276576040517f08c379a000000000000000000000000000000000000000000000000000000000815260040161026d90611320565b60405180910390fd5b600160003373ffffffffffffffffffffffffffffffffffffffff1673ffffffffffffffffffffffffffffffffffffffff16815260200190815260200160002060000160019054906101000a900460ff1615610306576040517f08c379a00000000000000000000000000000000000000000000000000000000081526004016102fd906112a0565b60405180910390fd5b61030f81610eaf565b8073ffffffffffffffffffffffffffffffffffffffff163373ffffffffffffffffffffffffffffffffffffffff167f03ed7b6dc46c2fcaae57978f60af9395207b758370c7b7350049c28e6312d1014260405161036c9190611380565b60405180910390a350565b6000600160008373ffffffffffffffffffffffffffffffffffffffff1673ffffffffffffffffffffffffffffffffffffffff16815260200190815260200160002060000160009054906101000a900460ff169050919050565b600160003373ffffffffffffffffffffffffffffffffffffffff1673ffffffffffffffffffffffffffffffffffffffff16815260200190815260200160002060000160009054906101000a900460ff1661045f576040517f08c379a000000000000000000000000000000000000000000000000000000000815260040161045690611260565b60405180910390fd5b600160003373ffffffffffffffffffffffffffffffffffffffff1673ffffffffffffffffffffffffffffffffffffffff16815260200190815260200160002060000160019054906101000a900460ff16156104ef576040517f08c379a00000000000000000000000000000000000000000000000000000000081526004016104e6906112c0565b60405180910390fd5b600260003373ffffffffffffffffffffffffffffffffffffffff1673ffffffffffffffffffffffffffffffffffffffff16815260200190815260200160002060008273ffffffffffffffffffffffffffffffffffffffff1673ffffffffffffffffffffffffffffffffffffffff16815260200190815260200160002060009054906101000a900460ff16156105b9576040517f08c379a00000000000000000000000000000000000000000000000000000000081526004016105b090611340565b60405180910390fd5b8073ffffffffffffffffffffffffffffffffffffffff163373ffffffffffffffffffffffffffffffffffffffff161415610628576040517f08c379a000000000000000000000000000000000000000000000000000000000815260040161061f90611240565b60405180910390fd5b6001600260003373ffffffffffffffffffffffffffffffffffffffff1673ffffffffffffffffffffffffffffffffffffffff16815260200190815260200160002060008373ffffffffffffffffffffffffffffffffffffffff1673ffffffffffffffffffffffffffffffffffffffff16815260200190815260200160002060006101000a81548160ff02191690831515021790555060018060008373ffffffffffffffffffffffffffffffffffffffff1673ffffffffffffffffffffffffffffffffffffffff16815260200190815260200160002060000160028282829054906101000a900460ff1661071b91906113c7565b92506101000a81548160ff021916908360ff1602179055508073ffffffffffffffffffffffffffffffffffffffff163373ffffffffffffffffffffffffffffffffffffffff167f91bb52cb4105b289f5a0abfc9d31674b0edfaf34cd126b69d1e690ed5fcf48ae60405160405180910390a350565b600160003373ffffffffffffffffffffffffffffffffffffffff1673ffffffffffffffffffffffffffffffffffffffff16815260200190815260200160002060000160009054906101000a900460ff1661081f576040517f08c379a000000000000000000000000000000000000000000000000000000000815260040161081690611260565b60405180910390fd5b6002600160003373ffffffffffffffffffffffffffffffffffffffff1673ffffffffffffffffffffffffffffffffffffffff16815260200190815260200160002060000160029054906101000a900460ff1660ff1610156108b5576040517f08c379a00000000000000000000000000000000000000000000000000000000081526004016108ac90611300565b60405180910390fd5b600160008273ffffffffffffffffffffffffffffffffffffffff1673ffffffffffffffffffffffffffffffffffffffff16815260200190815260200160002060000160019054906101000a900460ff16610944576040517f08c379a000000000000000000000000000000000000000000000000000000000815260040161093b90611360565b60405180910390fd5b6000600160008373ffffffffffffffffffffffffffffffffffffffff1673ffffffffffffffffffffffffffffffffffffffff16815260200190815260200160002060000160006101000a81548160ff0219169083151502179055506000600160003373ffffffffffffffffffffffffffffffffffffffff1673ffffffffffffffffffffffffffffffffffffffff16815260200190815260200160002060000160016101000a81548160ff0219169083151502179055506000600160003373ffffffffffffffffffffffffffffffffffffffff1673ffffffffffffffffffffffffffffffffffffffff16815260200190815260200160002060000160026101000a81548160ff021916908360ff1602179055508073ffffffffffffffffffffffffffffffffffffffff163373ffffffffffffffffffffffffffffffffffffffff167fb989543ecc57e274c53a275477905ffc0916a93582494b19c6578cc38fc35be460405160405180910390a350565b610abb610f66565b73ffffffffffffffffffffffffffffffffffffffff16610ad9610b3b565b73ffffffffffffffffffffffffffffffffffffffff1614610b2f576040517f08c379a0000000000000000000000000000000000000000000000000000000008152600401610b26906112e0565b60405180910390fd5b610b396000610f6e565b565b60008060009054906101000a900473ffffffffffffffffffffffffffffffffffffffff16905090565b6000600160008373ffffffffffffffffffffffffffffffffffffffff1673ffffffffffffffffffffffffffffffffffffffff16815260200190815260200160002060000160029054906101000a900460ff169050919050565b6000600160008373ffffffffffffffffffffffffffffffffffffffff1673ffffffffffffffffffffffffffffffffffffffff16815260200190815260200160002060000160019054906101000a900460ff169050919050565b610c1e610f66565b73ffffffffffffffffffffffffffffffffffffffff16610c3c610b3b565b73ffffffffffffffffffffffffffffffffffffffff1614610c92576040517f08c379a0000000000000000000000000000000000000000000000000000000008152600401610c89906112e0565b60405180910390fd5b6040518060600160405280600115158152602001600015158152602001600060ff16815250600160008373ffffffffffffffffffffffffffffffffffffffff1673ffffffffffffffffffffffffffffffffffffffff16815260200190815260200160002060008201518160000160006101000a81548160ff02191690831515021790555060208201518160000160016101000a81548160ff02191690831515021790555060408201518160000160026101000a81548160ff021916908360ff1602179055509050508073ffffffffffffffffffffffffffffffffffffffff163373ffffffffffffffffffffffffffffffffffffffff167f9d9471a38f9297cf361b918b6682d59a5bd19b7e77a975eca535c04a508b3f1d60405160405180910390a350565b610dbf610f66565b73ffffffffffffffffffffffffffffffffffffffff16610ddd610b3b565b73ffffffffffffffffffffffffffffffffffffffff1614610e33576040517f08c379a0000000000000000000000000000000000000000000000000000000008152600401610e2a906112e0565b60405180910390fd5b600073ffffffffffffffffffffffffffffffffffffffff168173ffffffffffffffffffffffffffffffffffffffff161415610ea3576040517f08c379a0000000000000000000000000000000000000000000000000000000008152600401610e9a90611280565b60405180910390fd5b610eac81610f6e565b50565b60018060008373ffffffffffffffffffffffffffffffffffffffff1673ffffffffffffffffffffffffffffffffffffffff16815260200190815260200160002060000160016101000a81548160ff02191690831515021790555060018060003373ffffffffffffffffffffffffffffffffffffffff1673ffffffffffffffffffffffffffffffffffffffff16815260200190815260200160002060000160016101000a81548160ff02191690831515021790555050565b600033905090565b60008060009054906101000a900473ffffffffffffffffffffffffffffffffffffffff169050816000806101000a81548173ffffffffffffffffffffffffffffffffffffffff021916908373ffffffffffffffffffffffffffffffffffffffff1602179055508173ffffffffffffffffffffffffffffffffffffffff168173ffffffffffffffffffffffffffffffffffffffff167f8be0079c531659141344cd1fd0a4f28419497f9722a3daafe3b4186f6b6457e060405160405180910390a35050565b6000813590506110418161180a565b92915050565b60006020828403121561105957600080fd5b600061106784828501611032565b91505092915050565b611079816113fe565b82525050565b61108881611410565b82525050565b600061109b6030836113b6565b91506110a682611482565b604082019050919050565b60006110be603b836113b6565b91506110c9826114d1565b604082019050919050565b60006110e16026836113b6565b91506110ec82611520565b604082019050919050565b60006111046046836113b6565b915061110f8261156f565b606082019050919050565b60006111276048836113b6565b9150611132826115e4565b606082019050919050565b600061114a6020836113b6565b915061115582611659565b602082019050919050565b600061116d6044836113b6565b915061117882611682565b606082019050919050565b60006111906038836113b6565b915061119b826116f7565b604082019050919050565b60006111b36036836113b6565b91506111be82611746565b604082019050919050565b60006111d6604d836113b6565b91506111e182611795565b606082019050919050565b6111f58161143c565b82525050565b61120481611446565b82525050565b600060208201905061121f6000830184611070565b92915050565b600060208201905061123a600083018461107f565b92915050565b600060208201905081810360008301526112598161108e565b9050919050565b60006020820190508181036000830152611279816110b1565b9050919050565b60006020820190508181036000830152611299816110d4565b9050919050565b600060208201905081810360008301526112b9816110f7565b9050919050565b600060208201905081810360008301526112d98161111a565b9050919050565b600060208201905081810360008301526112f98161113d565b9050919050565b6000602082019050818103600083015261131981611160565b9050919050565b6000602082019050818103600083015261133981611183565b9050919050565b60006020820190508181036000830152611359816111a6565b9050919050565b60006020820190508181036000830152611379816111c9565b9050919050565b600060208201905061139560008301846111ec565b92915050565b60006020820190506113b060008301846111fb565b92915050565b600082825260208201905092915050565b60006113d282611446565b91506113dd83611446565b92508260ff038211156113f3576113f2611453565b5b828201905092915050565b60006114098261141c565b9050919050565b60008115159050919050565b600073ffffffffffffffffffffffffffffffffffffffff82169050919050565b6000819050919050565b600060ff82169050919050565b7f4e487b7100000000000000000000000000000000000000000000000000000000600052601160045260246000fd5b7f496e7465726d65646961746553746174653a596f752063616e206e6f7420766f60008201527f746520666f7220796f75722073656c6600000000000000000000000000000000602082015250565b7f496e7465726d65646961746553746174653a206f6e6c792061646d696e20616c60008201527f6c6f77656420746f2063616c6c20746869732066756e6374696f6e0000000000602082015250565b7f4f776e61626c653a206e6577206f776e657220697320746865207a65726f206160008201527f6464726573730000000000000000000000000000000000000000000000000000602082015250565b7f496e7465726d65646961746553746174653a204f6e6c79206e6f6e207375737060008201527f656e6465642061646d696e2063616e2072656d6f766520746865206f7468657260208201527f2061646d696e0000000000000000000000000000000000000000000000000000604082015250565b7f496e7465726d65646961746553746174653a204f6e6c79206e6f6e207375737060008201527f656e6465642061646d696e2063616e20766f746520666f7220746865206f746860208201527f65722061646d696e000000000000000000000000000000000000000000000000604082015250565b7f4f776e61626c653a2063616c6c6572206973206e6f7420746865206f776e6572600082015250565b7f496e7465726d65646961746553746174653a5468652061646d696e2077686f2060008201527f686173206869676820766f7465732063616e2063616c20746869732066756e6360208201527f74696f6e00000000000000000000000000000000000000000000000000000000604082015250565b7f496e7465726d65646961746553746174653a204f6e6c792061646d696e20636160008201527f6e2072656d6f766520746865206f746865722061646d696e0000000000000000602082015250565b7f496e7465726d65646961746553746174653a596f75206861766520616c72656160008201527f647920766f746520666f7220746869732061646d696e00000000000000000000602082015250565b7f496e7465726d65646961746553746174653a204f6e6c792073757370656e646560008201527f642061646d696e2063616e2062652072656d6f76652066726f6d20746865206160208201527f646d696e697374726174696f6e00000000000000000000000000000000000000604082015250565b611813816113fe565b811461181e57600080fd5b5056fea2646970667358221220f89561fb5a6bb261f76600cf2bdc18989183cac80bdd852d52dc6c7b01c5054564736f6c63430008020033",
  "immutableReferences": {},
  "source": "    // SPDX-License-Identifier: MIT\r\npragma solidity ^0.8.0;\r\nimport \"@openzeppelin/contracts/access/Ownable.sol\";\r\n\r\n\r\ncontract IntermediateState is Ownable{\r\n    event _removeAdmin(address indexed _remover,address indexed  other,uint _complaintTime);\r\n    event _enternewAdmin(address indexed adder,address indexed  newAdmin);\r\n    event _voteCasted(address indexed voter,address indexed  voterFor);\r\n    event _adminRights(address indexed Caller,address indexed adminRemoved);\r\n\r\n    struct adminData{\r\n        bool member;\r\n        bool suspend;\r\n        uint8 noOfVotes;\r\n    }\r\n\r\n    mapping(address=>adminData) adminshipList;\r\n    mapping (address=>mapping(address=>bool)) intermediateVoteFor;\r\n\r\n    constructor(){\r\n        adminshipList[msg.sender]=adminData(true,false,0);\r\n    }\r\n\r\n    function isAdmin(address _admin) external view returns(bool){\r\n        return adminshipList[_admin].member;\r\n    }\r\n    function adminVotes(address _admin) external view returns(uint8){\r\n        return adminshipList[_admin].noOfVotes;\r\n    }\r\n\r\n    function isAdminSuspended(address _admin) external view returns(bool){\r\n        return adminshipList[_admin].suspend;\r\n    }\r\n\r\n\r\n    // I will add 5 admin to the list\r\n    function enterNewAdmin(address _admin) external onlyOwner{\r\n        adminshipList[_admin]=adminData(true,false,0);\r\n        emit _enternewAdmin(msg.sender, _admin);\r\n    }\r\n\r\n    function removeAdmin(address _admin) external{\r\n        require(adminshipList[msg.sender].member,\"IntermediateState: Only admin can remove the other admin\");\r\n        require(!adminshipList[msg.sender].suspend,\"IntermediateState: Only non suspended admin can remove the other admin\");\r\n        intermediateState(_admin);\r\n        emit _removeAdmin(msg.sender,_admin,block.timestamp);\r\n\r\n\r\n        // If ther is no intermediate state function;\r\n        // adminshipList[_admin].member=false;\r\n\r\n\r\n    }\r\n     function intermediateState(address _admin) private{\r\n        adminshipList[_admin].suspend=true;\r\n        adminshipList[msg.sender].suspend=true;\r\n    }\r\n\r\n\r\n\r\n    function adminVote(address _voteFor) external{\r\n        require(adminshipList[msg.sender].member,\"IntermediateState: only admin allowed to call this function\");\r\n        require(!adminshipList[msg.sender].suspend,\"IntermediateState: Only non suspended admin can vote for the other admin\");\r\n        require(!intermediateVoteFor[msg.sender][_voteFor],\"IntermediateState:You have already vote for this admin\");\r\n        require(msg.sender!=_voteFor,\"IntermediateState:You can not vote for your self\");\r\n\r\n        intermediateVoteFor[msg.sender][_voteFor]=true;\r\n        adminshipList[_voteFor].noOfVotes +=1;\r\n\r\n        emit _voteCasted(msg.sender, _voteFor);\r\n    }\r\n\r\n    function useRight(address _admin) external {\r\n        require(adminshipList[msg.sender].member,\"IntermediateState: only admin allowed to call this function\");\r\n        require(adminshipList[msg.sender].noOfVotes>=2,\"IntermediateState:The admin who has high votes can cal this function\");\r\n        require(adminshipList[_admin].suspend,\"IntermediateState: Only suspended admin can be remove from the administration\");\r\n\r\n        adminshipList[_admin].member=false;\r\n        adminshipList[msg.sender].suspend=false;\r\n        adminshipList[msg.sender].noOfVotes=0;\r\n\r\n        emit _adminRights(msg.sender, _admin);\r\n    }\r\n\r\n\r\n\r\n}",
  "sourcePath": "C:\\BigImmersiive\\antiFrontRunningInSolidity\\contracts\\IntermediateStates.sol",
  "compiler": {
    "name": "solc",
    "version": "0.8.2+commit.661d1103.Emscripten.clang"
  },
  "schemaVersion": "3.4.6",
  "updatedAt": "2022-04-25T06:20:48.591Z",
  "networkType": "ethereum",
  "devdoc": {
    "kind": "dev",
    "methods": {
      "owner()": {
        "details": "Returns the address of the current owner."
      },
      "renounceOwnership()": {
        "details": "Leaves the contract without owner. It will not be possible to call `onlyOwner` functions anymore. Can only be called by the current owner. NOTE: Renouncing ownership will leave the contract without an owner, thereby removing any functionality that is only available to the owner."
      },
      "transferOwnership(address)": {
        "details": "Transfers ownership of the contract to a new account (`newOwner`). Can only be called by the current owner."
      }
    },
    "version": 1
  },
  "userdoc": {
    "kind": "user",
    "methods": {},
    "version": 1
  }
}