{
  "contractName": "Txcounter",
  "abi": [
    {
      "inputs": [
        {
          "internalType": "address",
          "name": "_owner",
          "type": "address"
        }
      ],
      "stateMutability": "nonpayable",
      "type": "constructor"
    },
    {
      "anonymous": false,
      "inputs": [
        {
          "indexed": false,
          "internalType": "address",
          "name": "_owner",
          "type": "address"
        },
        {
          "indexed": false,
          "internalType": "uint256",
          "name": "_price",
          "type": "uint256"
        }
      ],
      "name": "PriceChange",
      "type": "event"
    },
    {
      "anonymous": false,
      "inputs": [
        {
          "indexed": false,
          "internalType": "address",
          "name": "_buyer",
          "type": "address"
        },
        {
          "indexed": false,
          "internalType": "uint256",
          "name": "_price",
          "type": "uint256"
        }
      ],
      "name": "Purchase",
      "type": "event"
    },
    {
      "inputs": [],
      "name": "getPrice",
      "outputs": [
        {
          "internalType": "uint256",
          "name": "",
          "type": "uint256"
        }
      ],
      "stateMutability": "view",
      "type": "function"
    },
    {
      "inputs": [],
      "name": "getTxCounter",
      "outputs": [
        {
          "internalType": "uint256",
          "name": "",
          "type": "uint256"
        }
      ],
      "stateMutability": "view",
      "type": "function"
    },
    {
      "inputs": [
        {
          "internalType": "uint256",
          "name": "_txCounter",
          "type": "uint256"
        }
      ],
      "name": "buy",
      "outputs": [
        {
          "internalType": "uint256",
          "name": "",
          "type": "uint256"
        }
      ],
      "stateMutability": "nonpayable",
      "type": "function"
    },
    {
      "inputs": [
        {
          "internalType": "uint256",
          "name": "_price",
          "type": "uint256"
        }
      ],
      "name": "setPrice",
      "outputs": [],
      "stateMutability": "nonpayable",
      "type": "function"
    }
  ],
  "bytecode": "0x608060405234801561001057600080fd5b506040516104e83803806104e88339818101604052810190610032919061009e565b80600260006101000a81548173ffffffffffffffffffffffffffffffffffffffff021916908373ffffffffffffffffffffffffffffffffffffffff1602179055506064600081905550600060018190555050610110565b600081519050610098816100f9565b92915050565b6000602082840312156100b057600080fd5b60006100be84828501610089565b91505092915050565b60006100d2826100d9565b9050919050565b600073ffffffffffffffffffffffffffffffffffffffff82169050919050565b610102816100c7565b811461010d57600080fd5b50565b6103c98061011f6000396000f3fe608060405234801561001057600080fd5b506004361061004c5760003560e01c806391b7f5ed1461005157806398d5fdca1461006d578063d96a094a1461008b578063f5ae7c7d146100bb575b600080fd5b61006b60048036038101906100669190610230565b6100d9565b005b6100756101b3565b60405161008291906102a0565b60405180910390f35b6100a560048036038101906100a09190610230565b6101bc565b6040516100b291906102a0565b60405180910390f35b6100c3610211565b6040516100d091906102a0565b60405180910390f35b600260009054906101000a900473ffffffffffffffffffffffffffffffffffffffff1673ffffffffffffffffffffffffffffffffffffffff163373ffffffffffffffffffffffffffffffffffffffff161461013357600080fd5b80600081905550600180600082825461014c91906102bb565b925050819055507ffb97d390102d99a2a0210c7da4d6e15528ca897324a726106755393058ae2719600260009054906101000a900473ffffffffffffffffffffffffffffffffffffffff166000546040516101a8929190610277565b60405180910390a150565b60008054905090565b600060015482146101cc57600080fd5b7f2499a5330ab0979cc612135e7883ebc3cd5c9f7a8508f042540c34723348f632336000546040516101ff929190610277565b60405180910390a16000549050919050565b6000600154905090565b60008135905061022a8161037c565b92915050565b60006020828403121561024257600080fd5b60006102508482850161021b565b91505092915050565b61026281610311565b82525050565b61027181610343565b82525050565b600060408201905061028c6000830185610259565b6102996020830184610268565b9392505050565b60006020820190506102b56000830184610268565b92915050565b60006102c682610343565b91506102d183610343565b9250827fffffffffffffffffffffffffffffffffffffffffffffffffffffffffffffffff038211156103065761030561034d565b5b828201905092915050565b600061031c82610323565b9050919050565b600073ffffffffffffffffffffffffffffffffffffffff82169050919050565b6000819050919050565b7f4e487b7100000000000000000000000000000000000000000000000000000000600052601160045260246000fd5b61038581610343565b811461039057600080fd5b5056fea26469706673582212208b221e570d301e66e0c4d08b57ab2ddf095da76e05241067e5154c58c6252aae64736f6c63430008020033",
  "immutableReferences": {},
  "source": "// SPDX-License-Identifier: MIT\r\npragma solidity ^0.8.2;\r\n\r\ncontract Txcounter {\r\n  uint256  private price;\r\n  uint256  private txCounter;\r\n  address private Owner;\r\n  \r\n  event Purchase(address _buyer, uint256 _price);\r\n  event PriceChange(address _owner, uint256 _price);\r\n\r\n  constructor(address _owner){\r\n      Owner=_owner;\r\n      price=100;\r\n      txCounter=0;\r\n  }\r\n  \r\n  modifier ownerOnly() {\r\n    require(msg.sender == Owner);\r\n    _;\r\n  }\r\n  function getPrice() external view returns (uint256) {\r\n    return price;\r\n  }\r\n\r\n  function getTxCounter() external view returns (uint256) {\r\n    return txCounter;\r\n  }\r\n\r\n  function buy(uint256 _txCounter) external returns (uint256) {\r\n    require(_txCounter == txCounter);\r\n    emit Purchase(msg.sender, price);\r\n    return price;\r\n  }\r\n\r\n  function setPrice(uint256 _price) external ownerOnly() {\r\n    price = _price;\r\n    txCounter += 1;\r\n   emit  PriceChange(Owner, price);\r\n  }\r\n}",
  "sourcePath": "C:\\BigImmersiive\\antiFrontRunningInSolidity\\contracts\\Txcounter.sol",
  "compiler": {
    "name": "solc",
    "version": "0.8.2+commit.661d1103.Emscripten.clang"
  },
  "schemaVersion": "3.4.6",
  "updatedAt": "2022-04-22T10:42:52.265Z",
  "devdoc": {
    "kind": "dev",
    "methods": {},
    "version": 1
  },
  "userdoc": {
    "kind": "user",
    "methods": {},
    "version": 1
  }
}